:020000040800F2
:10000000F00E0020392B0008AD090008AF090008E8
:10001000B3090008B7090008BB0900080000000088
:10002000000000000000000000000000BF09000800
:10003000C109000800000000C3090008512B000896
:10004000532B0008532B0008532B0008532B000898
:10005000532B0008532B0008532B0008532B000888
:10006000532B0008532B0008532B0008532B000878
:10007000532B0008532B0008B1210008532B000814
:10008000532B0008532B0008532B0008532B000858
:10009000532B0008532B0008532B0008532B000848
:1000A000532B0008211A0008532B0008532B00087B
:1000B000391700083911000833120008532B0008C3
:1000C000532B0008532B0008532B0008532B000818
:1000D000532B000847520008532B0008C152000858
:1000E000532B0008532B0008532B000800F002F894
:1000F00000F092F80AA090E8000C82448344AAF130
:100100000107DA4501D100F087F8AFF2090EBAE82D
:100110000F0013F0010F18BFFB1A43F0010318473B
:10012000F487000014880000103A24BF78C878C112
:10013000FAD8520724BF30C830C144BF04680C60ED
:10014000704700000023002400250026103A28BF35
:1001500078C1FBD8520728BF30C148BF0B60704739
:100160006E2905F02383702905F09B86662908F027
:100170004082652908F03D82672908F03A826129AA
:1001800008F0398203681B0A28BF41F08001692901
:1001900005F02E81642905F02B81752905F0288151
:1001A0006F2905F02986782905F06786E92905F089
:1001B000C385E42905F0C085F52905F0BD85EF2943
:1001C00005F02686F82905F066860368DB0928BF56
:1001D00041F08001632905F03285732905F03785E8
:1001E000E32906F07F80F32906F084800020704721
:1001F0001FB505F012FA05F05FFE04000020002193
:1002000007F032F9401C60600020002107F016F969
:10021000E0601FBD10B510BD06F006F91146FFF7EE
:10022000E7FF00F07EF806F02DF903B4FFF7F2FFC8
:1002300003BC04F059FF00000B49D1F800C04A6824
:100240005CF8043B1068184442F8040B8C4528BF46
:10025000A1F1DC0C8A4228BFA1F1DC02C1F800C088
:100260004A6020F0004070478408002070B500F01C
:1002700018FC04F059FE04F031FFFE4804F042FF80
:100280004FF4165004F08FFFC823FB4AFB49FC488B
:1002900001F050FF00F0C6FC00F07EFD00F0F0FD24
:1002A00000F080FC01F078F847214FF6FF7000F075
:1002B000A7FE47214FF6FF7000F0F0FE40F2CF217D
:1002C00042F2107001F0F8F840F2CF214FF47A704A
:1002D00001F0C8F801F062FD322004F08DFE01F05B
:1002E000C7FE05462946E7A005F04CF801F0CBFF14
:1002F00005462946E7A005F045F8002403E001F093
:1003000081F8601CC4B2642CF9DB642004F074FE34
:1003100002F01BF9642004F06FFE642002F036F94D
:1003200070BD98B00020169081468246FFF79EFF70
:100330000EE3DB48008800F4004000287ED0D84857
:1003400090F800B0BBF12C0F79D1D6480078D6498F
:100350000870D4484078303800F0FF09D1488078E0
:100360003038D2490870CF48C0783038D04908704A
:10037000CC4800793038CF490870CA4890F82B0033
:100380003038C0B216900020CB490880CB49088095
:10039000CB490860CB490860CB490860CB4908606D
:1003A000CB490860CB490860CB490860CB4908605D
:1003B000002417E0BB49601D085C3038BE4909883D
:1003C0000A2202FB0100BC490880B64904F108007A
:1003D000085C3038B949098802FB0100B749088038
:1003E000601CC4B2032CE5DB0024A8E0AD4A04F194
:1003F0000B01515CA1F1300007F01EFF0546B0482B
:100400000168B74807F078FF0646294607F074FDF3
:10041000AB49086008460068B2490860A14A04F187
:100420000F01515CA1F1300007F006FF0546A54819
:100430000168AB4807F060FF064601E014E2F7E010
:10044000294607F059FD9F490860964A04F11301B7
:10045000515CA1F1300007F0EFFE05469A480168B3
:100460009F4807F049FF0646294607F045FD964993
:1004700008608C4A04F11701515CA1F1300007F0CB
:10048000DBFE054691480168954807F035FF0646B2
:10049000294607F031FD8D490860824A04F11B01AD
:1004A000515CA1F1300007F0C7FE0546884801689D
:1004B0008B4807F021FF0646294607F01DFD8449B9
:1004C0000860784A04F11F01515CA1F1300007F087
:1004D000B3FE05467F480168814807F00DFF0646D8
:1004E000294607F009FD7B4908606E4A04F12301A3
:1004F000515CA1F1300007F09FFE05467648016887
:10050000774807F0F9FE0646294607F0F5FC7249E0
:100510000860644A04F12701515CA1F1300007F042
:100520008BFE05466D4801686D4807F0E5FE0646FE
:10053000294607F0E1FC69490860601CC4B2042C3C
:10054000FFF654AF68496248006807F043FD604910
:10055000086065496148006807F03CFD5F49086034
:1005600061495C48006807F035FD5A4908601698F3
:1005700018B101205D49086002E000205B49086075
:10058000BAF1000F4ED05A4800684B4A1288801AC0
:1005900000EB8000410057A004F0F4FE5749886A40
:1005A00007F07EFCCDE914015449086A07F078FC95
:1005B000CDE912015149486907F072FCCDE91001FB
:1005C0004E49486A07F06CFC05460E464B494868A0
:1005D00007F066FCCDE90E014849C86907F060FCE8
:1005E000074688464549886907F05AFCCDE90C0161
:1005F000DDE91401CDE90A01DDE91201CDE90801C7
:10060000DDE91001CDE90456CDE90601DDE90E0171
:10061000CDE90078CDE9020139A0DDE90C2304F031
:10062000B1FE02E03FA004F0ADFE4AA004F0AAFE35
:1006300000201B4908801C480078432802D101F0A3
:10064000BBF900E000BF00BFB9F1000F10D0BAF154
:10065000000F0ED1642001F099FF0A2004F0CCFCB9
:100660004FF4967002F00DF80A2004F0C5FC73E018
:1006700080E06DE100181500C00100200438014041
:10068000440002406D7075363035300925640D0A1E
:1006900000000000494E413232360925640D0A003F
:1006A00018010020180600209C000020B500002042
:1006B0009E000020B40000208C0000208E0000204E
:1006C00090000020B8000020A8000020AC0000200E
:1006D000B0000020BC000020C0000020C4000020AA
:1006E00000002041D40000200000C84280012142C7
:1006F0008800002025646D732C0000005801002044
:10070000252E33662C252E33662C252E33662C257C
:100710002E33662C252E33662C252E33662C252E63
:100720003366000054696D652C54656D702C5465FA
:100730006D70662C4469732C4469735F732C526529
:10074000735F4D2C5265735F4E2C6452312C645490
:10075000000000000D0A000001F0D6FE00207D49D7
:1007600008600121880703F0D9FE01217A4803F0CF
:10077000D5FEEDE001F0E9FE0020784908600A208E
:1007800004F03AFC642001F001FF72480068744AEA
:100790001288801A00EB80004100AFF2A80004F03C
:1007A000F1FD7049886A07F07BFBCDE914016D49C2
:1007B000086A07F075FB05460E466A49486907F066
:1007C0006FFB074688466749486A07F069FBCDE931
:1007D00012016449486807F063FBCDE910016149E3
:1007E000C86907F05DFBCDE90E015E49886907F035
:1007F00057FBCDE90C01DDE91401CDE90678CDE91F
:100800000856CDE90A01DDE91201CDE90401DDE96F
:100810001001CDE90201DDE90E01CDE90001AFF2E1
:100820002010DDE90C2304F0ADFD4FA004F0AAFD7B
:100830004FF0000932204A4908804FF0000A00209A
:100840004449086000214FF0804004F005F9002180
:100850004FF0804003F062FE00213F4803F05EFE4F
:1008600000204649087073E0B9F1000F70D0444889
:100870000078E8B3434801684348006807F044FE45
:100880000546424907F004FE0AD33E4908683E493E
:10089000096807F039FE05463C4907F0F9FD29D201
:1008A000384801F0D1FD38480168364801F0D5FDDF
:1008B00000203249087036493348006807F04CFC84
:1008C00004D14FF49670334908600AE02E4801685D
:1008D0004FF0814007F010FD054607F071FC2D49EF
:1008E00008602C480068642804DA6420294900E084
:1008F00000E008601B498869274907F0C9FD06D256
:100900000020164908601E490870244908701C48D8
:100910000078B8B921480078A0B900200F490860D4
:10092000642001F033FE64201A490860154801F084
:100930008BFD00201149087019481A4908604120B0
:10094000194908701348006801F020FE4FF0010AB1
:10095000EFE4000088000020002C01408C012142BF
:100960008C0000205801002044495341424C45204E
:1009700053414D504C450D0A0000000084000020FA
:100980009E00002088010020900000200000A04070
:1009900000003443A400002000003E43B4000020C7
:1009A00000009644980000209C000020704700BF83
:1009B000FEE700BFFEE700BFFEE700BFFEE77047AF
:1009C000704770470CB50020019000906C4800689B
:1009D00040F480306A49086000BF6948006800F44C
:1009E000003000900198401C0190009818B90198BF
:1009F000B0F5A06FF1D16248006800F4003010B18A
:100A00000120009001E0002000900098012843D1CF
:100A10005C48006840F010005A49086008460068C9
:100A200020F0030008600846006840F002000860FB
:100A30005348406852494860084640684860084644
:100A4000406840F4806048600846406820F47C10AC
:100A500048600846406840F4E8104860084600686E
:100A600040F08070086000BF4548006800F00070EA
:100A70000028F9D04248406820F00300404948600F
:100A80000846406840F00200486000BF3C484068AB
:100A900000F00C000828F9D10CBD10B5FFF792FF4B
:100AA00010BD10B53648006840F0010034490860B8
:100AB00008464068344908403149486008460068A3
:100AC000324908402E4908600846006820F480201A
:100AD00008600846406820F4FE0048604FF41F009C
:100AE0008860FFF7DAFF4FF000602949086010BD09
:100AF00010B5002100200022214B5B6803F00C019F
:100B000021B1042906D0082928D107E0214B224C25
:100B1000236027E01F4B204C236023E0184B5B68C9
:100B200003F47010164B5B6803F48032022303EB6E
:100B3000904022B9194B4343174C23600DE0104BF2
:100B40005B6803F4003323B1144B4343124C23601E
:100B500003E0104B4343104C236003E00D4B0E4C5D
:100B6000236000BF00BF064B5B68C3F303130C4C4C
:100B7000E15C094B1B68CB40074C236010BD0000B3
:100B800000100240002002400000FFF8FFFFF6FEC8
:100B900008ED00E000127A000000002000093D008E
:100BA0000400002008B50121082002F06FFB4FF47B
:100BB0007040ADF8000014208DF8030003208DF87C
:100BC00002006946154802F0A5F84FF47041134839
:100BD00002F04DF90121042002F058FB0120ADF88C
:100BE000000010208DF8030003208DF802006946F4
:100BF0000B4802F08FF80820ADF8000018208DF89F
:100C0000030003208DF802006946054802F082F8CF
:100C10000921034802F02DF908BD0000000C014035
:100C20000008014038B50121042002F02FFB4FF4E9
:100C30000060ADF8000048208DF8030003208DF817
:100C4000020069464A4802F065F84FF48070ADF83A
:100C5000000010208DF8030003208DF80200694683
:100C6000444802F057F84FF48071414802F0FFF811
:100C70000124204638BD70B50F262DE001203E49E5
:100C800008600A2004F0B8F93CA004F07BFB0025C2
:100C90000AE00A2004F0B0F93B48008800F4004064
:100CA00000B103E0681CC5B2142DF2DB00BF36486A
:100CB000008800F4004078B13348047800203249BD
:100CC00008800D2C08D1314800782B2804D12F48FA
:100CD00080793038C4B204E03000A6F10101CEB210
:100CE000CCD100BF00202449086006B9FF2420466B
:100CF00070BD2DE9F04105460F272BE001201E496C
:100D000008600A2004F078F9294621A004F03AFB93
:100D100000260AE01C48008800F4004000B106E00C
:100D2000052004F069F9701CC6B2142EF2DB00BF76
:100D30001548008800F4004060B113480478002092
:100D400011490880042C05D1104800784F2801D1A2
:100D5000002404E03800A7F10101CFB2CED100BFDA
:100D600000200549086007B9FF242046BDE8F0814E
:100D70000008014000100140A001214241542B52C3
:100D80004F4C453F0D0A00001801002018060020B6
:100D900025730D0A0000000000B587B001214FF453
:100DA000017002F073FA4FF4004002F0D3F9022010
:100DB000ADF8040000208DF8070001A92E4801F0CD
:100DC000A9FF2E4803F088FE002002908DF80C0049
:100DD0008DF80D004FF46020049000200590012054
:100DE0008DF8180002A9254803F09DFE0121234833
:100DF00003F0C5FE214803F0E4FE00BF1F4803F0E6
:100E0000E5FE0028FAD11D4803F0EAFE00BF1B48AA
:100E100003F0EBFE0028FAD107B000BD10B5044680
:100E2000072301222146154803F015FF012113482D
:100E300003F0E5FE00BF0221104804F051F800283D
:100E4000F9D00E4803F06EFF10BD2DE9F0410746C2
:100E50000C460025002608E03846FFF7DFFF054472
:100E6000052004F0C9F8701CC6B2A642F4DBB5FB3D
:100E7000F4F080B2BDE8F081000801400024014098
:100E800000B587B0012141F2040002F0FFF96020B3
:100E9000ADF8180001208DF81A0018208DF81B00FD
:100EA00006A9444801F036FF1020ADF818000120D3
:100EB0008DF81A0010208DF81B0006A93D4801F09E
:100EC00029FF10213B4801F0D2FF0020ADF80400BB
:100ED0004FF48270ADF806000020ADF80800ADF8C0
:100EE0000A00ADF80C004FF40070ADF80E001020B1
:100EF000ADF810000020ADF812000720ADF8140086
:100F000001A92D4802F050FC01212B4802F0F1FC10
:100F100007B000BD10B500BF0221274802F06DFDEB
:100F20000028F9D0FF21244802F014FD00BF012160
:100F3000214802F062FD0028F9D01F4802F00CFDA4
:100F4000C0B210BD2DE9F84F814610201949143167
:100F50000860FFF7DFFF824654462402FFF7DAFFFE
:100F60008246102013491031086044EA0A0404F054
:100F7000040000904FEA440B4FEA1B1BA9F8004005
:100F8000584606F013FD074600220C4B06F05EFDA6
:100F9000054606F07FFAC9F804002CB1009830B17C
:100FA00007A004F0EFF902E00CA004F0EBF9BDE8B3
:100FB000F88F000000080140003001400000D03FE1
:100FC0000D0A4E4F206465766963652C20706C6550
:100FD000736520636865636B0D0A00000D0A4E6F30
:100FE00020646174612077617320666F756E642080
:100FF00066726F6D206D6178363637350D0A0000E8
:1010000030B585B005460C460121022002F04BF9AF
:101010000121042002F03AF98020ADF810002820C8
:101020008DF8130004A9CE4801F074FE8021CC484D
:1010300001F01FFFADF80850ADF804400020ADF8F6
:101040000A00ADF8060001A9C64802F00BFF042013
:10105000C549088000204880012088800020C88081
:101060000881C04803F091F91D208DF8000001208F
:101070008DF8010000208DF8020001208DF803009A
:10108000684601F07EFD01220421B64803F061FAB2
:101090000121B44803F042FA05B030BD30B585B047
:1010A00005460C460121042002F0FDF8012108202C
:1010B00002F0ECF88020ADF8100028208DF8130025
:1010C00004A9AA4801F026FE8021A84801F0D1FE1B
:1010D000ADF80850ADF804400020ADF80A00ADF8B6
:1010E000060001A9A24802F0BDFE0420A149088023
:1010F00000204880012088800020C88008819C480A
:1011000003F043F91E208DF8000001208DF8010046
:1011100000208DF8020001208DF80300684601F0E0
:1011200030FD01220521924803F013FA0121904875
:1011300003F0F4F905B030BD10B50421894803F07F
:10114000B6FC00286CD08C480078002834D18B483D
:101150000068A8B18A480078022804D1894800684C
:10116000401C8849086086480078012804D18548D9
:101170000068401E8349086003208149087013E01D
:101180007F48007820B97F480068401C7D4908608E
:101190007B480078032804D17A480068401E7949CA
:1011A0000860022076490870012073490870022106
:1011B0006C4803F077FB33E070480068A0B17048DA
:1011C0000078032804D16F480068401C6D4908600E
:1011D0006B48007820B96B480068401E6949086078
:1011E00001206749087014E065480078012804D19F
:1011F00064480068401C6349086061480078022820
:1012000004D160480068401E5E49086000205C49C7
:1012100008700020584908700021524803F042FB32
:101220000021504803F00EFC05214E4803F050FC0D
:1012300010BD10B504214E4803F039FC00286CD0D5
:1012400051480078002834D150480068A8B14C4873
:101250000078022804D14B480068401C49490860C6
:1012600047480078012804D146480068401E454997
:10127000086003204249087013E0414800780328C1
:1012800004D140480068401C3E4908603C48007852
:1012900020B93C480068401E3A490860012038499E
:1012A00008700120384908700221314803F0FAFA29
:1012B00033E036480068A0B13148007820B93148A1
:1012C0000068401C2F4908602D480078032804D18D
:1012D0002C480068401E2B490860022028490870ED
:1012E00014E027480078012804D126480068401CF3
:1012F0002449086022480078022804D12148006867
:10130000401E2049086000201D49087000201E4929
:1013100008700021164803F0C5FA0021144803F0B4
:1013200091FB0521124803F0D3FB10BD70B51548A1
:10133000006806F024FB04460022154B06F098F9DD
:10134000144A03C2134903C970BD00200C49087038
:101350000021104A116051600A490860704700007E
:1013600000080140000400401C010020000C014066
:101370000008004026010020180000201C812142A6
:1013800024000020300000201E0000201C0121420B
:1013900000408F402800002008B50121102001F0F6
:1013A00075FF4FF44040ADF8000010208DF80300A9
:1013B00003208DF802006946254801F0ABFC4FF48C
:1013C0004041234801F055FD0121082001F05EFF56
:1013D0004FF40070ADF8000010208DF803000320DA
:1013E0008DF8020069461B4801F094FC4FF400712F
:1013F000184801F03EFD0120174908601749C1F85F
:10140000BC0108BD10B50020154908601349C1F89A
:10141000B80111490860022003F0CAFD01200E49FD
:1014200008600F49086010BD10B500200C49086025
:1014300001200A49C1F8B8010020074908600220CC
:1014400003F0B6FD0120044908600549086010BD9D
:1014500000100140000C0140A48121420000224202
:10146000BC0122427FB505460C460121C80201F0AD
:101470000DFFADF80850ADF804400020ADF80A00AB
:10148000ADF806008DF80C0001A9FE4802F0EAFC58
:1014900001221146FB4803F05CF819208DF800008A
:1014A00003208DF8010001208DF802008DF8030063
:1014B000684601F066FB7FBD30B589B005460C4635
:1014C0000121084601F0EFFEADF81C50ADF81840C0
:1014D0000020ADF81E00ADF81A0006A94FF08040BC
:1014E00002F0C0FC01220221480703F032F81C2060
:1014F0008DF8140003208DF8150000208DF81600DB
:1015000001208DF8170005A801F03BFB7020ADF815
:1015100004000120ADF806000220ADF80C0001A97E
:10152000400702F0B6FD40F24C414FF0804003F01E
:101530008DFA00214FF0804003F08EFA0821C80692
:1015400003F03BF900214FF0804002F0E7FF09B0C3
:1015500030BD2DE9F04F93B0044600201190824633
:10156000C9481090C9480F90C9480E90C9480D90BD
:10157000C9480C90C9480B90C9480A90C9480990BD
:10158000C9480890C949B1F9040006F055FE079012
:1015900006F086FC0746C64AC64B06F057FA0546D3
:1015A000C54AC64B06F050FB7AD2C5480068206099
:1015B000FFF7BCFE81F00041054605F06BFF60605F
:1015C000C0486169006806F09FFF8046616906F0C7
:1015D00001FD074606F064FC0546B74ABA4B06F023
:1015E000F9F932D2B7486169006806F08DFF064606
:1015F000616906F0EFFC0546B44906F049FF24D2C4
:10160000AA49B1F9000006F017FE079006F048FC61
:101610000746AF4AAF4B06F019FA054605F03AFF08
:10162000A060A249B1F9040006F006FE079006F09A
:1016300037FC07469E4A9F4B06F008FA054605F020
:1016400029FFE0609F4800686061A34960690968FC
:1016500006F05AFF0746A1480168384606F0BAFC72
:1016600006469D480168304606F0B4FC054694489D
:101670000168284606F040FCA0619948007898B1BE
:101680009849A06906F004FE0BD20021A06906F07B
:10169000FFFE06D20021A06901F065F9E06105E0D6
:1016A00047E0A069E06101E0A069E0618E48006860
:1016B00020628349A069096806F026FFE0628B4931
:1016C000206A096806F020FF11908848006806F03B
:1016D000E7FBCDE90201E06A06F0E2FB05467C4A41
:1016E000834B06F0B3F9CDE90001DDE9022306F0F2
:1016F000ADF9CDE90601119806F0D2FBCDE9040160
:10170000DDE9062306F0E2FA074605F0C3FE82464D
:10171000C4F828A0D4F82CB0D146484606F0C0FB47
:1017200007460022734B06F091F9054605F0B2FE1C
:10173000606213B0BDE8F08F2DE9F84F0221480731
:1017400003F0B5F900287DD06B480078401C6A4949
:1017500008708221554800F0BEFD63490860534976
:10176000B1F9000006F068FD824606F099FB0646D6
:10177000574A584B06F06AF9044600225F4B05F0C1
:1017800077FF804605F086FE5D4908608021474866
:1017900000F0A1FD4B4908605A48FFF7DAFE5A48AD
:1017A000007800286CD0594908684549096806F056
:1017B0006FFD03D2424800685449086054480168EC
:1017C0005448006806F098FD0446514801685248A4
:1017D000006806F091FD05462B46504800940268CB
:1017E0004B480168494800F03AFE00214A48006829
:1017F00006F0B2FC02D100204449C860414881692A
:10180000424800F049FE044640484168204606F040
:1018100073FB3E494860304801682A48006806F07A
:1018200073FE04462C480168204606F0D3FB3C4971
:10183000086000213A48006806F02AFD07D23848BF
:10184000006800E0AAE080F00040354908603448B4
:1018500001684FF07E5006F04FFB04462B4841686C
:10186000204606F049FD2A4908602E4928480068AC
:1018700006F00EFD62D22B4825490860084653E069
:101880007BE00000002C0140CDCCFEC2BC7463BFE5
:10189000AE47B13F800D08BB7993DF3B57ECAFBE3D
:1018A000F02A35BA0A2E96BDC8985BBF34000020D6
:1018B0002D431CEBE2362A3F9A9999999999B93FA1
:1018C00074000020600000209999E93F000080BF6B
:1018D0007B14AE47E17A543F64000020780000207A
:1018E000B500002000007A44C80000206C000020F1
:1018F000E17A643F00000C40D00000200000184056
:1019000068000020580100209E000020880100206F
:1019100098000020B0000020AC000020A8000020AB
:10192000A000002000009644006806F065FC84B228
:1019300021464FF0804003F08FF82BE0E549E64860
:10194000006806F0A5FD0DD2E248E34908600846AC
:10195000006806F051FC84B221464FF0804003F04D
:101960007BF817E0DC48006806F046FC84B22146AC
:101970004FF0804003F070F80CE0D848D64908607A
:101980000846006806F038FC84B221464FF08040DB
:1019900003F062F80221480703F09AF8BDE8F88FD7
:1019A0000021016041608160C1604161816101622B
:1019B00041628162C16270472DE9F05FFFF7C5FCAB
:1019C000C748C84908600846006806F069FA8046BA
:1019D000C54AC64B06F03AF80646C54AC54B05F05F
:1019E0008BFD044622460B46BF48C04905F040FE29
:1019F000824605F04FFDC0490860C0480068C049F4
:101A00000860BE480068BF494861BF480068BF49D8
:101A100008600121B348006800F0A5FFBDE8F09F11
:101A20002DE9F04FA1B00121B94803F040F800289A
:101A30007ED0B8480068401CB64908600846006877
:101A4000B5490988B0FBF1F201FB1200002870D102
:101A5000B0480068B04A1288801A00EB800041004C
:101A6000AEA003F08FFC9C48006806F019FA04460B
:101A70000D46AC49486806F013FA06460F46A149E0
:101A8000C86A06F00DFA804689469E49886A06F0C3
:101A900007FA82468B469B49086A06F001FACDE9AF
:101AA0001E019849486906F0FBF9CDE91C019549EA
:101AB000486A06F0F5F9CDE91A019249486806F03E
:101AC000EFF9CDE918018F49C86906F0E9F9CDE9C8
:101AD00016018C49886906F0E3F9CDE914019248B2
:101AE0000088CDE90AABCDE90C89CDE90E67CDE9D7
:101AF00010451290DDE91E01CDE90801DDE91C0168
:101B0000CDE90601DDE91A01CDE90401DDE918019D
:101B1000CDE90201DDE91601CDE9000183A0DDE98F
:101B2000142303F02FFC90480088C82853DD01E0FF
:101B3000CDE070E08C480088B0F5617F4BDA8B48CF
:101B4000006806F0ADF906460F468848006806F0C2
:101B5000A7F98046894684490988C8394FF47A72C2
:101B600001FB02F006F068FB17907F480088C83838
:101B70004FF47A71484367490968B1FBF0F200FB02
:101B800012104000159006F06FFB7949169006F090
:101B9000B3FB8346179906F01DFA824606F080F9DA
:101BA000CDE9180105F0FAFB42464B46CDE91A0192
:101BB00005F04CFF32463B46CDE91C0105F09CFC8C
:101BC000044600226B4B05F097FCCDE91E0105F0A1
:101BD00061FC694908606448008840F2E731884246
:101BE00019D14C4800681421B0FBF1F201FB12003E
:101BF00088B96248007803F0FBFCFEF71DFB8221E8
:101C000090FBF1F201FB120000F11E04204606F0E9
:101C100013FB594908603F48006859490978B0FBEF
:101C2000F1F201FB120000284DD15648007800283F
:101C300049D05348007806F017FB07465248016820
:101C4000384606F059FB04464D48007806F00CFB78
:101C500007464E480168384606F04EFB05464848A0
:101C6000007806F001FB06462B46494800943146B1
:101C70000268484800F0F3FB00214448006806F081
:101C80006BFA02D100204349C8601E48416A4148AE
:101C900000F002FC04463F484168204606F02CF95B
:101CA0003C494860084641683348006806F024F91A
:101CB0003149086038493048006806F0E9FB02D233
:101CC00035482D4908600121114802F001FF21B07B
:101CD000BDE8F08F00401C469800002000009644AC
:101CE0000000C8417400002011C7BAB88D06C03F7B
:101CF0006891ED7C3F953640780000206000002020
:101D00006400002058010020C80000206C00002062
:101D1000002C0140880000208C00002025646D7399
:101D20002C0000008801002040000040252E336672
:101D30002C252E33662C252E33662C252E33662C2F
:101D4000252E33662C252E33662C252E33662C2526
:101D50002E33662C252E33662C252E33662C2564D7
:101D60002C252E33660D0A008E000020D4000020A2
:101D7000F90F494000003E4090000020D0000020B4
:101D800083000020B4000020C4000020C000002018
:101D9000BC000020A40100200000344308B501214C
:101DA000082001F073FA0320ADF8000010208DF830
:101DB000030003208DF802006946924800F0AAFF54
:101DC0000321904801F053F801208F4908608F49A2
:101DD000C1F8840108BD10B58A48006820F0F00001
:101DE000884908600846006840F03000086001201B
:101DF0008549091D08608549C1F8800103F0B4F8E0
:101E000000208149091D0860012003F0ADF8002081
:101E10007E49C1F8800110BD10B57A48006820F0F5
:101E2000F000784908600846006840F0300008601B
:101E300000207549091D086001207449C1F880011E
:101E400003F092F801207049091D086003F08CF836
:101E500010BD10B500246B48006820F0F0006949FF
:101E600008600846006840F03000086001206649BC
:101E7000091D086003F078F86248006820F0F0005F
:101E8000604908600846006840F080000860012052
:101E90005E49C1F8800103F067F80AE0601CC4B233
:101EA000012003F061F8C82C03DDFFF7B5FF012026
:101EB00010BD55487C3800680028EFD152490860B1
:101EC00000BFF5E710B500204F4908604D48006895
:101ED00020F0F0004B4908600846006840F03000F0
:101EE000086000204949C1F88401012003F03CF852
:101EF00001204549086003F037F800204349C1F844
:101F00008001012003F030F810BD10B500203E49DB
:101F100008603C48006820F0F0003A490860084634
:101F2000006840F03000086001203849C1F88401A1
:101F300003F01AF801203449086003F015F8002076
:101F40003249C1F88001012003F00EF810BD70B5D0
:101F500004462C48006820F0F0002A490860084632
:101F6000006840F030000860002027490860002524
:101F700013E0E0092449091D08606006040E0120F1
:101F80002249C1F8800102F0EFFF00201E490860DD
:101F9000012002F0E9FF681CC5B2082DE9DBFFF75C
:101FA00058FF70BD70B5054600241648006820F043
:101FB000F000144908600846006840F0800008609E
:101FC000002614E001201049086002F0CDFF6006F1
:101FD000040E0E48D0F8040108B1601CC4B2002001
:101FE00009490860012002F0BFFF701CC6B2082E2C
:101FF000E8DB15B9FFF789FF01E0FFF763FF204633
:1020000070BD0000000C014080812142008021420F
:1020100070B505460C46FFF7DEFED020FFF797FFB0
:1020200006462846FFF793FF06462046FFF78FFF38
:102030000646FFF7F1FE304670BD70B505460C460A
:10204000FFF7C9FED020FFF782FF06462846FFF7BC
:102050007EFF0646FFF7BFFED120FFF778FF06465A
:102060000020FFF79FFF2070FFF7D6FE304670BDBF
:1020700038B50020009069467520FFF7DEFF044662
:102080000CB1012038BD9DF8000000F07E000090EA
:102090009DF80000401000909DF80000342801D009
:1020A0000120EFE700216B20FFF7B2FF0721192085
:1020B000FFF7AEFF06211A20FFF7AAFF18211B2009
:1020C000FFF7A6FF01211C20FFF7A2FF0020D9E7A0
:1020D0001CB5044601A92046FFF7AFFF611CC8B23A
:1020E0006946FFF7AAFF9DF800009DF8041000EB79
:1020F000012000B21CBD70B504460D463B20FFF721
:10210000E7FF20803D20FFF7E3FF60803F20FFF7DF
:10211000DFFFA0804320FFF7DBFF28804520FFF78B
:10212000D7FF68804720FFF7D3FFA8804120FFF743
:10213000CFFF70BD2DE9F04107460D4616461C46FF
:102140000121084601F095F8384601F08DFC2B4836
:1021500004802B48056046601020294988600846A5
:10216000C460002008618020486100208861C86147
:1021700008624FF48050486200208862384601F0BF
:1021800015FD01220221384601F047FDBDE8F0812E
:1021900070B504460D460021204601F032FD294667
:1021A000184801F043FD0121204601F02AFD70BDD1
:1021B00010B54FF4005001F03FFD38B14FF400501E
:1021C00001F04EFD00210F4801F01BFD10BD0FB4C2
:1021D00038B505A800900C48009A049903F0C0F89F
:1021E00000200090084803F021FA84B221460548F7
:1021F000FFF7CEFF38BC5DF814FB0000D8000020CC
:102200008802002044000240C00100202DE9F04176
:1022100006460C461546FFF7DEFD2846FFF797FEFB
:1022200007463046FFF793FE07462012FFF78FFE62
:102230000746E0B2FFF78BFE0746FFF7EDFD384695
:10224000BDE8F0812DE9F04105460C46FFF7C3FDDE
:102250002046FFF77CFE2846FFF779FEFFF7BBFD1F
:10226000611CC8B2FFF773FE0120FFF79BFE064614
:102270000020FFF797FE0746FFF7CEFD07EB06208D
:1022800000B2BDE8F08170B5002400258021FF2058
:10229000FFF7D8FF0546802240F207410020FFF7F4
:1022A000B5FF80224FF4A0610520FFF7AFFF822128
:1022B000FF20FFF7C7FF0446822240F207510020AB
:1022C000FFF7A4FF82224FF4A0610520FFF79EFFD5
:1022D000281900B270BD2DE9F04F8BB00446894635
:1022E000002009904D48089049460220FFF7AAFFB8
:1022F000208049460120FFF7A5FF60804946042061
:10230000FFF7A0FFA08049460320FFF79BFFE08076
:10231000B9F1800F03D0B9F1820F73D131E0404899
:102320000890B4F9020005F087FF074605F0B8FDF4
:1023300005463C4A3C4B05F089FBCDE90401B4F964
:10234000000005F079FF019005F0AAFD8246374AAA
:10235000374B05F07BFB05460E46089805F0A0FDBF
:1023600007462A46334605F071FBCDE90201DDE957
:10237000042305F07DF9CDE9060105F08BF80990FD
:1023800040E02C480890B4F9000005F055FF01909A
:1023900005F086FD0746254A254B05F057FB054607
:1023A0000022254B05F064F982464FF06632234B3C
:1023B00005F080FCCDE90401B4F9000005F03CFF14
:1023C0001F49009005F006FE019005F069FD0546E5
:1023D000164A174B05F03AFB07468846089805F061
:1023E0005FFD82463A46434605F030FBCDE90201E7
:1023F000DDE9042305F03CF9CDE9060105F04AF8D2
:10240000099000BF00BF0021099806F041F803D2EF
:1024100009980BB0BDE8F08F0A48FAE77CF2B03CAF
:102420007CF2303CF168E388B5F8C43E7B14AE47DB
:10243000E17A543F000087430000184066660A4076
:102440000000C040000080BF002101604160816049
:10245000C1600161416181617047016070472DE990
:10246000F04704460E4615461F46DDF82080A5605D
:102470003946304605F0AEFD8146294605F03CFF61
:10248000E0603146404605F0A5FD8146294605F04D
:1024900033FF2061BDE8F0872DE9F84F04460E4672
:1024A0003146206806F030F805464FF080406169FB
:1024B00005F022FF2946009006F01BF88346A1692B
:1024C00005F01AFD8246216905F016FF804629466F
:1024D000E06805F011FF00902846616906F014F8E5
:1024E0008346A16805F008FF8246009905F004FDC7
:1024F0008146414605F000FD07466069A0616561BF
:102500003846BDE8F88F00001CB59BA103C9CDE992
:10251000000100209A49087012E0994A12781DF8CB
:102520000210984801F052F800BF4021954801F090
:10253000BBF80128F9D192480078401C90490870F6
:102540008F4800780628E8DB1CBD1CB58EA103C9A6
:10255000CDE9000100208A49087012E0884A12780B
:102560001DF80210874801F031F800BF402185486E
:1025700001F09AF80128F9D181480078401C80497F
:1025800008707F4800780628E8DB1CBD70B504465B
:1025900025464FF47A7095FBF0F030307C49087096
:1025A0004FF47A7095FBF0F100FB1150642190FB21
:1025B000F1F0303076494870642095FBF0F100FB73
:1025C00011500A2190FBF1F03030714988700A20D7
:1025D00095FBF0F100FB115030306D49C8700020C0
:1025E0006749087012E06B48654A1278815C65485B
:1025F00000F0ECFF00BF4021624801F055F80128CF
:10260000F9D15F480078401C5D4908705C4800784B
:102610000328E8DB00205A49087012E05C48584A59
:102620001278815C574800F0D1FF00BF4021554827
:1026300001F03AF80128F9D151480078401C50497E
:1026400008704F4800780428E8DB00204C490870E7
:1026500012E051484A4A1278815C4A4800F0B6FFBD
:1026600000BF4021474801F01FF80128F9D1444834
:102670000078401C42490870414800780228E8DB95
:1026800070BD70B5044625464FF47A7095FBF0F0A6
:1026900030303F4908704FF47A7095FBF0F100FB41
:1026A0001150642190FBF1F03030394948706420BA
:1026B00095FBF0F100FB11500A2190FBF1F0303056
:1026C000334988700A2095FBF0F100FB115030303F
:1026D0002F49C87000202A49087012E02F48284A64
:1026E0001278815C274800F071FF00BF4021254827
:1026F00000F0DAFF0128F9D121480078401C204978
:1027000008701F4800780328E8DB00201C49087087
:1027100012E01F481A4A1278815C1A4800F056FFEE
:1027200000BF4021174800F0BFFF0128F9D114482D
:102730000078401C12490870114800780428E8DB32
:1027400000200F49087012E013480D4A1278815C8E
:102750000C4800F03BFF00BF40210A4800F0A4FFF6
:102760000128F9D106480078401C05490870044842
:1027700000780228E8DB70BD3A776F310D0A00005F
:10278000E6000020004800403A776F300D0A000054
:10279000E2000020DA000020E0000020DD00002040
:1027A0002DE9F04781460C46204605F079FB0746A7
:1027B000CA4ACB4B05F04AF9054604F06BFEC949FD
:1027C0000860084601684FF07E5005F09DFE074600
:1027D000C5484168384605F08FFD0546C148016887
:1027E000484605F089FD0646294605F085FBBE49A9
:1027F000086008460068486008460068BDE8F08741
:102800002DE9F74F8AB081469246B84801684FF0EB
:10281000804005F071FD05900B9905F06DFD834634
:1028200005F03EFB0746AD4AAD4B05F00FF90546F6
:1028300004F030FEAE4908600846006805F030FB41
:10284000074604F05DFD0022AA4BCDE9020105F028
:1028500031FA00224FF08043CDE9040104F008FF73
:10286000054604F017FE044621464FF0804005F06F
:1028700043FD099008949E48006805F011FBCDE9DE
:10288000040104F03DFD054600224FF0404305F0F1
:10289000DDF8074604F0FEFD079051464FF08040FA
:1028A00005F02AFD074605F0FBFACDE90001904846
:1028B000006805F0F5FA074604F070FD0546DDE90D
:1028C000002304F0D5FE00228A4BCDE9020105F079
:1028D000F1F9CDE9040104F0DDFD06908648406879
:1028E000854988600846006848600846C0F800903E
:1028F0008248406881498860084600684860084608
:102900008168069805F0F8FC05907C4841680798B6
:1029100005F0F2FC049078488168089805F0ECFC1A
:10292000804675484168099805F0E6FC8346724880
:102930000168204605F0E0FC5946039005F0DCFAFA
:102940000746414605F0D8FA0646049905F0D4FA40
:102950000546059905F0D0FA684908600846006800
:102960000DB0BDE8F08F2DE9F04F91B083460C46D5
:102970006348109000BF00BF00BF00BF00BF00BF92
:1029800060496148CDE90E1060496148CDE90C10FD
:1029900060486149CDE90A0160486149CDE9080113
:1029A0006048D0E900105F4AC2E90210584605F0BD
:1029B00077FA5C4A03C25C49D1E902015A4AC2E98A
:1029C00004011046D0E90010C2E902105548D0E9D0
:1029D00000532A46DDE90E0105F038F8CDE906017D
:1029E0005048D0E902532A46DDE90C0105F02EF8E3
:1029F000CDE902014C48D0E904733A46DDE908010B
:102A000005F024F805460E464748D0E902733A46D9
:102A1000DDE90A0105F01AF881462A46334604F03A
:102A20006BFDCDE90001DDE9022304F065FDCDE990
:102A30000401DDE9062304F05FFD3B4A03C2DCB17B
:102A4000584605F02DFA374A03C2584605F028FAD1
:102A5000344AC2E90201584605F022FA324A03C25A
:102A6000584605F01DFA304AC2E90201584605F001
:102A700017FA2D4AC2E904012B48D0E9002110467B
:102A800004F008FD11B0BDE8F08F2DE9F0410646D5
:102A90000C462648007890FBF4F104FB110524480D
:102AA00050F825102348006805F02EFD21490860E4
:102AB0001F4840F8256050F825101E48006805F0B2
:102AC0001BFA1C490860204605F0B6FB074639464C
:102AD0001848006805F07EFABDE8F0819A99999946
:102AE0009999B93FE8000020EC000020EC8600082E
:102AF000F40000200000F03FEC020020E002002083
:102B00000AD7A33C60CD0182397AB43FA96A82A872
:102B1000FB00B4BFADFA5C6DC57EFD3FB1E1E99548
:102B2000B20CEBBFD0020020B8020020D000002081
:102B3000F8020020F80000200948804709480047B3
:102B4000FEE7FEE7FEE7FEE7FEE7FEE7FEE7FEE75D
:102B5000FEE7FEE704480549054A064B70470000BA
:102B6000A30A0008ED000008F0080020F00E002085
:102B7000F00A0020F00A002031490143314A116077
:102B8000704770B5002100230F22C47804B32D4C88
:102B9000246804F4E064C4F5E064210AC1F104038C
:102BA000CA40447804FA03F18478144021430901AF
:102BB000254C0678A155047804F01F050124AC408B
:102BC00005786D11AD0005F1E025C5F8004109E07B
:102BD000047804F01F050124AC401C4D06787611E2
:102BE00045F8264070BD1A4A0A400243154B1B1F88
:102BF0001A60704739B1134A121D12680243114B13
:102C00001B1D1A6006E00F4A121D126882430D4B0D
:102C10001B1D1A607047042808D14FF0E021096994
:102C200041F004014FF0E022116107E04FF0E02194
:102C3000096921F004014FF0E022116170470000A2
:102C40000000FA050CED00E000E400E080E100E0A7
:102C500080FFFF1F10B50446CC48844208D10121F3
:102C6000042000F02DFB0021042000F029FB46E0A9
:102C7000C748844208D10121082000F021FB00212F
:102C8000082000F01DFB3AE0C248844208D101212F
:102C9000102000F015FB0021102000F011FB2EE0A9
:102CA000BD48844208D10121202000F009FB002109
:102CB000202000F005FB22E0B848844208D1012121
:102CC000402000F0FDFA0021402000F0F9FA16E063
:102CD000B348844208D10121802000F0F1FA00219C
:102CE000802000F0EDFA0AE0AE48844207D10121CD
:102CF000801500F0E5FA0021A01500F0E1FA10BD02
:102D000010B50121084600F0DBFA0021012000F097
:102D1000D7FA10BD2DE9F04102460025002600201B
:102D200000230024002791F803C00CF00F0591F850
:102D300003C00CF0100CBCF1000F03D091F802C0DE
:102D40004CEA050591F800C0BCF1000F31D01468C1
:102D500000202BE04FF0010C0CFA00F3B1F800C09A
:102D60000CEA03069E4220D183004FF00F0C0CFAB0
:102D700003F7BC4305FA03FC4CEA040491F803C0D2
:102D8000BCF1280F06D14FF0010C0CFA00FCC2F880
:102D900014C00AE091F803C0BCF1480F05D14FF010
:102DA000010C0CFA00FCC2F810C0401C0828D1D35A
:102DB0001460B1F800C0BCF1FF0F34DD546800208E
:102DC0002EE000F1080C4FF0010808FA0CF3B1F8FE
:102DD00000C00CEA03069E4221D183004FF00F0C85
:102DE0000CFA03F7BC4305FA03FC4CEA040491F81F
:102DF00003C0BCF1280F05D100F1080C08FA0CF84B
:102E0000C2F8148091F803C0BCF1480F07D100F15B
:102E1000080C4FF0010808FA0CF8C2F81080401CAA
:102E20000828CED35460BDE8F0814FF6FF710180D1
:102E3000022181700421C17070470246002093680E
:102E40000B400BB1012000E000207047014688686C
:102E500080B2704702460020D3680B400BB10120BE
:102E600000E0002070470146C86880B270470161E9
:102E70007047416170470AB1016100E041617047EC
:102E8000C16070474FF480320A4382618161826180
:102E900082698269704702460020434B18684FF6EA
:102EA0008073184040EA021008433F4B1860704797
:102EB0003E49C8617047F0B50A460023002400214E
:102EC000002500F00046B6F1004F02D1364EF16900
:102ED00001E0354E7168C0F3034583B200F440163B
:102EE000B6F5401F08D121F070612F4E766826F0AC
:102EF00070662D4F7E6012E000F48016B6F5801FDC
:102F000006D1032606FA05F4A14341F0706106E0FC
:102F1000460D360103FA06F6B14341F0706122B165
:102F2000460D360103FA06F6314300F00046B6F1CD
:102F3000004F02D11C4EF16101E01B4E7160F0BDEB
:102F400030B500228B071C0F0F2303FA04F2164B37
:102F500008338C1053F824309343134C08348D10ED
:102F600044F8253023468C1053F824308C07240F66
:102F700000FA04F423430C4C08348D1044F8253037
:102F800030BD0A49DC31086070470000000801408C
:102F9000000C0140001001400014014000180140E5
:102FA000001C0140002001400000014000002042C0
:102FB000DF48006840F00100DD49086008464068CD
:102FC000DC490840DA49486008460068DA490840A8
:102FD000D74908600846006820F480200860084649
:102FE000406820F4FE0048604FF41F00886070477E
:102FF000CF49096821F48031CD4A11601146096832
:1030000021F480211160B0F5803F03D0B0F5802F0E
:103010000ED106E0C649096841F48031C44A116006
:1030200007E0C349096841F4A021C14A116000E0EA
:1030300000BF00BF704710B50146002200230020EA
:103040004A11012A02D1BA4C236806E0022A02D1B1
:10305000B74C236A01E0B64C636A01F01F020124F9
:1030600094401C400CB1012000E0002010BD38B598
:10307000002000900024002500BF3120FFF7DBFF77
:1030800005460098401C00900098B0F5A06F01D054
:10309000002DF2D03120FFF7CEFF08B1012400E06F
:1030A0000024204638BD01460020A14A106820F0C7
:1030B000F80040EAC10010607047A04908607047FE
:1030C000024600209A4B586820F47C1042EA010323
:1030D0001843974B586070479849086670470146F7
:1030E0000020934A506820F0030008435060704766
:1030F0008F48406800F00C007047014600208C4A61
:10310000506820F0F00008435060704701460020EE
:10311000874A506820F4E0600843506070470146D9
:103120000020834A506820F4605040EAC10050609B
:10313000704729B17E4A527A02437D4B5A7204E0AD
:103140007B4A527A82437A4B5A7270477B49D83114
:103150000860704701460020754A506820F44040DE
:103160000843506070470021714A20321170704A44
:1031700082F82010012802D004280AD104E001219D
:103180006B4A2032117005E00521694A2032117026
:1031900000E000BF00BF704769490860704764499C
:1031A000096A0143624A11627047654944390860FF
:1031B000704730B500210022002400235C4D6D686B
:1031C00005F00C0121B1042905D0082923D105E01F
:1031D0005C4D056022E05B4D05601FE0544D6D685D
:1031E00005F47012524D6D6805F48034022505EB2C
:1031F00092421CB9544D554305600BE04C4D6D682F
:1032000005F400351DB1504D5543056002E04D4DAC
:103210005543056002E04B4D056000BF00BF444DC3
:103220006D6805F0F0010909484D6B5C0568DD40EB
:1032300045603F4D6D6805F4E061090A434D6B5CE4
:103240004568DD4085603A4D6D6805F46051C90AF6
:103250003E4D6B5C4568DD40C560354D6D6805F4DD
:103260004041890B3A4D6B5CC568B5FBF3F50561D0
:1032700030BD29B12E4A526902432D4B5A6104E0F8
:103280002B4A526982432A4B5A61704729B1284A16
:1032900092690243264B9A6104E0254A926982436F
:1032A000234B9A61704729B1214AD2690243204BCE
:1032B000DA6104E01E4AD26982431D4BDA6170472D
:1032C00029B11B4AD2680243194BDA6004E0184A5C
:1032D000D2688243164BDA60704729B1144A1269EA
:1032E0000243134B1A6104E0114A12698243104BE6
:1032F0001A61704712494039086070470F49C86425
:1033000070470B49C87170470948406A40F08070A7
:1033100007494862704701460020054A92680A4002
:103320000AB1012000E0002070470149887270470F
:10333000001002400000FFF8FFFFF6FE00004242CE
:103340008004424200127A0000093D00FC00002087
:103350000C01002010B50446FB48844209D101212C
:103360008803FFF7ADFF00214FF48040FFF7A8FF6F
:1033700032E0F648844209D101214804FFF7ADFF4D
:1033800000214FF40030FFF7A8FF25E0F048844209
:1033900009D101218804FFF7A0FF00214FF480200C
:1033A000FFF79BFF18E0EB48844209D10121C804D4
:1033B000FFF793FF00214FF40020FFF78EFF0BE093
:1033C000E548844208D101210805FFF786FF002166
:1033D0004FF48010FFF781FF10BD2DE9F04786B054
:1033E00005460E460024A24600BFA1460027B0892C
:1033F00000B100BF2F462C8A4CF6FF700440F088C5
:1034000004432C82AC894EF6F3100440B088318915
:103410000843718908430443AC81AC8A4FF6FF40EE
:103420000440B0890443AC8201A8FFF7C2FEC6483D
:10343000874202D1DDF810A001E0DDF80CA0A889D8
:1034400000F4004040B10AEBCA0000EB0A103168FA
:103450004900B0FBF1F807E00AEBCA0000EB0A10E4
:1034600031688900B0FBF1F86420B8FBF0F004018A
:103470002009642101FB1089A88900F4004040B1B3
:10348000322000EBC900B0FBF1F000F0070004436C
:1034900008E0322000EB09106421B0FBF1F000F0ED
:1034A0000F0004432C8106B0BDE8F0874FF416519D
:1034B000016000218180C18001810C2141810021B6
:1034C0008181704710B502460020108A4FF2FF0339
:1034D00018400B884C8823438C882343CC88234393
:1034E0001843108210BD0021018041808180C1807D
:1034F000704721B1828942F40052828104E08289BE
:103500004DF6FF731A4082817047F0B503460024E0
:1035100000260025002040F66A17B94200D100BFFE
:103520001846C1F3421401F01F06012707FA06F5F9
:10353000012C01D10C3004E0022C01D1103000E04C
:1035400014301AB107682F43076002E00768AF43E1
:103550000760F0BD1AB1838A0B43838202E0838A3D
:103560008B4383827047028A4FF6F0731A400282BF
:10357000028A0A430282704782894FF2FF731A401F
:10358000828182890A438281704721B1828942F017
:103590000202828104E082894FF6FD731A40828123
:1035A0007047028A4FF6DF731A400282028A0A438A
:1035B0000282704721B1028A42F48042028204E012
:1035C000028A4BF6FF731A4002827047C1F3080269
:1035D0008280704701468888C0F30800704781895F
:1035E00041F0010181817047028BD2B20283028BCC
:1035F00042EA012202837047028B02F47F42028377
:10360000028B0A430283704721B1828A42F0200272
:10361000828204E0828A4FF6DF731A40828270470A
:1036200021B1828A42F01002828204E0828A4FF63F
:10363000EF731A408282704721B1828A42F00802F9
:10364000828204E0828A4FF6F7731A4082827047C2
:1036500021B1828942F40042828103E08289C2F36F
:103660000E028281704721B1828A42F40062828216
:1036700004E0828A4FF2FF731A4082827047828A86
:103680004FF6FB731A408282828A0A438282704715
:1036900021B1828A42F00202828204E0828A4FF6DD
:1036A000FD731A408282704702460020B1F5007F08
:1036B00000D100BF13880B400BB1012000E00020B7
:1036C000704701F40072B2F5007F00D100BFCA4319
:1036D0000280704770B502460024002300250020B8
:1036E00040F66A16B14200D100BFC1F3421501F0A5
:1036F0001F03012606FA03F3012D02D196893340F8
:1037000006E0022D02D1168A334001E0968A33404A
:103710000C12012606FA04F41688344013B10CB1D9
:10372000012000E0002070BD10B50022002340F60B
:103730006A14A14200D100BF0A1201249440A3B22E
:10374000DC43048010BD000000380140004400400C
:1037500000480040004C00400050004010B50446B6
:10376000BE48844208D101218014FFF7A9FD002141
:10377000A014FFF7A5FD16E0B948844208D1012145
:103780000014FFF7AAFD00212014FFF7A6FD0AE0B0
:10379000B448844207D10121C013FFF79EFD0021E8
:1037A000E013FFF79AFD10BD10B50022028802F465
:1037B00041520B884C8823438C882343CC88234375
:1037C0000C8923434C8923438C892343CC8923438D
:1037D0001A430280838B4FF2FF74234083830B8A4A
:1037E000038210BD2DE9F04F85B005460C464FF021
:1037F000000902274FF000084FF0010B0026B246E7
:10380000A88B4FF240010840A88302202884B5F815
:103810001C90A068022801D100BF38E0A08810B930
:103820004FF0010B01E04FF0020B8D48854200D1B3
:1038300000E000BF6846FFF7BCFCDDF800A0E088B0
:10384000B0F5007F0AD14FEA1A2000EB800040005B
:10385000A168B0FBF1F0401D86B20BE04FEA4B10BF
:10386000BAFBF0F000EB80004000A168B0FBF1F083
:10387000401D86B20A20B6FBF0F606F00108A6EB62
:103880000800C0F34F074FF6FF7000EA0828022F28
:1038900001DBFF2F02DD02274FF00008E08840EA3D
:1038A000080038432884A088A18908436188084318
:1038B0002188084340F4006040EA0909A5F81C90FB
:1038C00005B0BDE8F08F0021018041808180C1807A
:1038D000018141818181C1810721018270470021DD
:1038E000018041808180C18002218160002181812D
:1038F000704721B1028842F04002028004E0028851
:103900004FF6BF731A400280704721B1828B42F498
:103910008062828304E0828B4FF6FF331A408283F9
:10392000704730B5002400230C110125A540ABB22F
:103930001AB185881D43858002E085889D43858076
:1039400030BD1AB183880B43838002E083888B43A8
:1039500083807047818170470146888970474FF6A0
:10396000FF62914204D0028842F48072028004E037
:1039700002884FF6FF631A400280704721B18288A7
:1039800042F00402828004E082884FF6FB731A4002
:103990008280704702884FF2FF731A4002800288CB
:1039A0000A4302807047018841F4805101807047CA
:1039B00021B1028842F40052028004E002884DF6F0
:1039C000FF731A400280704702460020012901D08F
:1039D000108B00E0908A70470146088A7047B1F565
:1039E000804F04D1028842F48042028004E00288C1
:1039F0004BF6FF731A40028070470246002013897D
:103A00000B400BB1012000E000207047CA43028147
:103A10007047F0B50246002000240023002501F085
:103A20000F070126BE40B4B20B1101269E40B3B26F
:103A3000968806EA03051689264016B10DB10120C5
:103A400000E00020F0BD10B5002201F00F040123BA
:103A5000A3409AB2D343038110BD0000003001405F
:103A600000380040003C004001684FF6FE721140F3
:103A700001600021016041608160C1608D49884220
:103A800008D18C490839496841F00F01894A083A40
:103A900051608AE087491431884208D18549083944
:103AA000496841F0F001834A083A51607DE081495C
:103AB0002831884208D17F490839496841F470614A
:103AC0007C4A083A516070E07A493C31884208D11A
:103AD00078490839496841F47041764A083A51609A
:103AE00063E074495031884208D172490839496805
:103AF00041F470216F4A083A516056E06D496431D3
:103B0000884208D16B490839496841F47001694A13
:103B1000083A516049E067497831884208D16549DF
:103B20000839496841F07061624A083A51603CE0E6
:103B30006149884206D1011F096841F00F01021F47
:103B4000116032E05C491431884208D15A49091F9A
:103B5000096841F0F001584A121F116025E05649EA
:103B60002831884208D15449091F096841F470611D
:103B7000514A121F116018E04F493C31884208D168
:103B80004D49091F096841F470414B4A121F1160E9
:103B90000BE049495031884207D14749091F09685C
:103BA00041F47021444A121F1160704710B5002281
:103BB000026847F6F0739A430C6A8B6823430C69DA
:103BC00023434C6923438C692343CC6923434C6AC8
:103BD00023438C6A23431A430260CB6843600B681B
:103BE00083604B68C36010BD00210160416081604B
:103BF000C160016141618161C161016241628162B3
:103C0000704721B1026842F00102026004E00268DC
:103C10004FF6FE731A40026070471AB103680B43F7
:103C2000036002E003688B430360704741607047A4
:103C30000146486880B2704701460020002201F02A
:103C400080531BB11C4B083B1A6802E0194B083B20
:103C50001A6802EA01030BB1012000E0002070475E
:103C600000F0805119B11449091F086002E01149A0
:103C700008394860704701460020002201F0805357
:103C80001BB10D4B083B1A6802E00A4B083B1A684F
:103C900002EA01030BB1012000E00020704700F0B0
:103CA000805119B10449091F086002E0014908392F
:103CB00048607047080002400804024010B50446FE
:103CC000FE48844208D10121C014FFF7F9FA00210F
:103CD000E014FFF7F5FAC4E0B4F1804F08D10121F8
:103CE0000846FFF7FAFA00210120FFF7F6FAB8E0DC
:103CF000F348844208D101210220FFF7EEFA0021A7
:103D00000220FFF7EAFAACE0EE48844208D1012134
:103D10000420FFF7E2FA00210420FFF7DEFAA0E01A
:103D2000E948844208D101210820FFF7D6FA002192
:103D30000820FFF7D2FA94E0E448844208D1012138
:103D40001020FFF7CAFA00211020FFF7C6FA88E01A
:103D5000DF48844208D101212020FFF7BEFA00216C
:103D60002020FFF7BAFA7CE0DA48844208D101212A
:103D70004014FFF7A5FA00216014FFF7A1FA70E0E4
:103D8000D548844209D10121C804FFF799FA0021DE
:103D90004FF40020FFF794FA63E0D048844209D141
:103DA00001210805FFF78CFA00214FF48010FFF77E
:103DB00087FA56E0CA48844209D101214805FFF735
:103DC0007FFA00214FF40010FFF77AFA49E0C54866
:103DD000844208D101214020FFF77FFA00214020D2
:103DE000FFF77BFA3DE0C048844208D101218020E2
:103DF000FFF773FA00218020FFF76FFA31E0BB482C
:103E0000844208D101218015FFF767FA0021A0152F
:103E1000FFF763FA25E0B648844209D1012108047E
:103E2000FFF74EFA00214FF48030FFF749FA18E00F
:103E3000B048844209D101214804FFF741FA00212A
:103E40004FF40030FFF73CFA0BE0AB48844208D156
:103E500001218804FFF734FA00214FF48020FFF796
:103E60002FFA10BD00220288944B98420ED0994B35
:103E700098420BD0B0F1804F08D0914B984205D0BA
:103E8000904B984202D0904B984204D14FF68F73DA
:103E90001A404B881A438D4B984207D08C4B98425E
:103EA00004D04FF6FF431A40CB881A4302808B8818
:103EB00083850B880385814B98420BD0854B9842B4
:103EC00008D08B4B984205D08A4B984202D08A4B3F
:103ED000984201D10B7A038601238382704770B523
:103EE000002400220023058C4FF6FE763540058421
:103EF000028C8388048B4FF68F752C40B51E2C40A6
:103F00000D882C43751E2A400D892A434D882A436B
:103F10006A4DA8420BD06F4DA84208D0744DA842FC
:103F200005D0744DA84202D0734DA84213D14FF66C
:103F3000F7752A404D892A434FF6FB752A408D8834
:103F40002A434FF6FF652B404FF6FF552B408D89D6
:103F50002B43CD892B4383800483CD8885860284BF
:103F600070BD70B5002400220023058C4FF6EF765B
:103F700035400584028C8388048B48F6FF752C40FD
:103F80004FF6FF452C400D884FF6FF7606EA0525D3
:103F90002C434FF6DF752A400D8906EA05152A43A2
:103FA0004D8806EA05152A43444DA84202D0494DE2
:103FB000A8421DD14FF67F752A404D894FF6FF76F6
:103FC00006EA05152A434FF6BF752A408D8806EA92
:103FD00005152A434FF6FF352B404FF2FF752B4056
:103FE0008D8906EA85052B43CD8906EA85052B4395
:103FF00083800483CD880587028470BD70B500245A
:1040000000220023058C4FF6FF6635400584028CA4
:104010008388848B4FF68F752C404FF6FC752C40AF
:104020000D882C434FF6FF552A400D894FF6FF7639
:1040300006EA05252A434D8806EA05252A431F4D31
:10404000A84202D0234DA8421DD14FF2FF752A404D
:104050004D894FF6FF7606EA05252A434FF6FF35D0
:104060002A408D8806EA05252A434EF6FF752B4027
:104070004DF6FF752B408D8906EA05152B43CD893A
:1040800006EA05152B4383808483CD8885870284C7
:1040900070BD70B5002200230024058C4EF6FF761B
:1040A00035400584038C8488828B48F6FF752A404E
:1040B0004FF6FF452A400D8820E00000002C01400B
:1040C0000004004000080040000C004000100040C8
:1040D0000014004000340140004C014000500140F9
:1040E0000054014000180040001C00400020004027
:1040F0000040014000440140004801404FF6FF7677
:1041000006EA05252A434DF6FF752B400D8906EA80
:1041100005352B434D8806EA05352B43FA4DA84259
:1041200002D0FA4DA84208D14BF6FF752C408D897C
:104130004FF6FF7606EA85152C4384808283CD886E
:10414000A0F84050038470BD828B4FF2FF331A40B9
:104150008283828B4FF6FF7303EA01231A43828323
:104160007047F0B50C461546002200210026078C4A
:104170004EF6FF7C07EA0C070784828B018C4FF612
:10418000FF7707EA043640F6FF473A404FF6FF77DD
:1041900007EA05273A434FF6FF7707EA03373A4322
:1041A000D94FB8420ED0D94FB8420BD0B0F1804FA2
:1041B00008D0D74FB84205D0D64FB84202D0D64F1C
:1041C000B84206D14DF6FF77394046F4805739435F
:1041D00005E047F6FF57394044F48057394382835E
:1041E0000184F0BD828B4FF6F3731A408283828B79
:1041F0000A4382837047F0B50C4615460022002121
:104200000026078C4FF6FF6C07EA0C070784828BA9
:10421000018C4FF6FF7707EA04264FF60C773A40F9
:104220004FF6FF7707EA03172F433A43B64FB842DA
:104230000ED0B64FB8420BD0B0F1804F08D0B44F7B
:10424000B84205D0B34FB84202D0B34FB84206D1FE
:104250004FF6FF57394046F48077394305E04FF277
:10426000FF57394044F48077394382830184F0BD9D
:10427000028B4FF2FF331A400283028B4FF6FF731B
:1042800003EA01231A4302837047F0B50C46154632
:10429000002200210026078C4FF6EF7C07EA0C076E
:1042A0000784028B018C4FF6FF7707EA041640F66D
:1042B000FF473A404FF6FF7707EA03373A434FF696
:1042C000FF7707EA05273A438F4FB8420ED08F4F4A
:1042D000B8420BD0B0F1804F08D08D4FB84205D016
:1042E0008C4FB84202D08C4FB84206D14FF6DF77E0
:1042F000394046F01007394305E04FF65F77394003
:1043000044F01007394302830184F0BD028B4FF65D
:10431000F3731A400283028B0A4302837047F0B59D
:104320000C46154600220021068C4FF6FE773E40D3
:104330000684028B018C4FF60C7632407E1C06EA16
:1043400003162E433243704EB0420ED06F4EB04231
:104350000BD0B0F1804F08D06D4EB04205D06D4EFD
:10436000B04202D06C4EB04206D14FF6FD763140DD
:1043700044F00106314305E04FF6F576314044F054
:104380000106314302830184F0BD70B505460C4639
:104390005D4885420ED05D4885420BD0B5F1804F17
:1043A00008D05B48854205D05A48854202D05A4819
:1043B000854200D100E000BF208850B92389A2883F
:1043C00061882846FFF7ABFFE1882846FFF79EFF8C
:1043D00025E0208804280AD12389A28861882846FC
:1043E000FFF753FFE1882846FFF742FF17E02088D8
:1043F00008280AD12389A28861882846FFF7FBFE96
:10440000E1882846FFF7EEFE09E02389A28861884B
:104410002846FFF7A6FEE1882846FFF795FE70BD07
:104420002DE9F04105460C4600260127608808B9B1
:10443000022600E00026A088012801D1022700E022
:1044400001272088A0B92389A28861882846FFF720
:1044500066FFE1882846FFF759FF23893A4631462F
:104460002846FFF712FFE1882846FFF701FF13E017
:104470002389A28861882846FFF707FFE18828463C
:10448000FFF7F6FE23893A4631462846FFF747FFF5
:10449000E1882846FFF73AFFBDE8F0810A884B889B
:1044A0001A438B881A43CB881A430B891A434B89CA
:1044B0001A438B891A43A0F8442070474FF6FF71C6
:1044C000818000210180C1804180017270470021FC
:1044D000018041808180C180018141818181C181D0
:1044E0007047002101804180012181800021C1802D
:1044F000018170470021018041808180C18001815C
:104500004181818170470000002C0140003401404E
:104510000004004000080040000C004021B1028867
:1045200042F00102028004E002884FF6FE731A4056
:104530000280704731B1B0F8442042F40042A0F844
:10454000442005E0B0F84420C2F30E02A0F8442055
:1045500070471AB183890B43838102E083898B43BF
:10456000838170478182704741EA0203A0F8483096
:1045700070471AB183890B43838102E083898B439F
:104580008381704701894FF6F872114001817047AD
:104590000A46002101894FF68F73194011430181AA
:1045A000704730B504460D4629462046FFF7F0FF18
:1045B000208940F00700208130BD2DE9F0410446FC
:1045C0000D4616461F46602D06D13B460122314658
:1045D0002046FFF75AFE05E03B46012231462046C1
:1045E000FFF79DFE29462046FFF7D2FF208940F0C5
:1045F00007002081BDE8F08130B50C46002101891B
:10460000C9B24FF6FF7505EA032515432543294333
:10461000018130BD2DE9F04105460E46174698460A
:10462000002443463A4631462846FFF7E5FF2C89E9
:104630004FF6F870044044F007044FF68F700440C2
:1046400044F070042C81BDE8F081F0B504460D46BD
:1046500016461F463B46324629462046FFF7CCFF0A
:10466000208940F480402081F0BD0185828270471E
:104670000A46002101884FF68F73194011430180CB
:104680007047F0B50C4615461E4600210022002357
:104690000189028B038C4FF6F877394021434FF69E
:1046A000FC473A4040F201173A434FF6DD773B4072
:1046B0004FF6FF7707EA06172F433B43018102833A
:1046C0000384F0BD0A460021018B4FF68F73194019
:1046D0001143018370470A460021018B48F6FF739E
:1046E00019404FF6FF7303EA022319430183704711
:1046F0000A460021818B4FF68F7319401143818345
:1047000070470A460021818B48F6FF7319404FF627
:10471000FF7303EA022319438183704721B10288A2
:1047200042F08002028004E002884FF67F731A4054
:104730000280704721B1828842F00402828004E046
:1047400082884FF6FB731A408280704721B18288BD
:1047500042F00802828004E082884FF6F7731A4024
:104760008280704721B1828842F00102828004E099
:1047700082884FF6FE731A40828070470A460021F5
:10478000018B4FF6F77319401143018370470A46B6
:104790000021018B4FF2FF7319404FF6FF7303EABC
:1047A00002231943018370470A460021818B4FF68B
:1047B000F77319401143818370470A460021818BAA
:1047C0004FF2FF7319404FF6FF7303EA02231943B8
:1047D000818370470A460021018B4FF6FB73194015
:1047E0001143018370470A460021018B4FF6FF33C6
:1047F00019404FF6FF7303EA022319430183704700
:104800000A460021818B4FF6FB73194011438183C7
:1048100070470A460021818B4FF6FF3319404FF64F
:10482000FF7303EA02231943818370470A4600217C
:10483000018B4FF67F7319401143018370470A467D
:104840000021018BC1F30E014FF6FF7303EA02232F
:104850001943018370470A460021818B4FF67F730D
:1048600019401143818370470A460021818BC1F3AF
:104870000E014FF6FF7303EA022319438183704749
:104880000A460021018C4FF6FD7319401143018443
:1048900070470A460021018C4FF6F7731940114307
:1048A000018470470A460021018C4FF6DF731940DE
:1048B0004FF6FF7303EA02131943018470470A4657
:1048C0000021018C4FF67F7319404FF6FF7303EA06
:1048D00002131943018470470A460021018C4FF6E8
:1048E000FF5319404FF6FF7303EA02231943018473
:1048F00070470A460021018C4FF2FF7319404FF6B2
:10490000FF7303EA02231943018470470A4600211A
:10491000018C4DF6FF7319404FF6FF7303EA023323
:1049200019430184704730B5002301248C40A3B2A1
:10493000048C9C430484048C02FA01F5ADB22C4330
:10494000048430BD30B5002304248C40A3B2048C11
:104950009C430484048C02FA01F5ADB22C43048418
:1049600030BD70B5034600200024184618300125DC
:104970008D40ACB21D8CA5431D8409B1082909D115
:1049800000EB6100056825F07005056005681543BA
:1049900005600EE00D1FC5F34E052844056825F49B
:1049A000E045056005684FF6FF7606EA02263543C6
:1049B000056070BD21B1028842F00202028004E06D
:1049C00002884FF6FD731A400280704721B10288B9
:1049D00042F00402028004E002884FF6FB731A40A2
:1049E0000280704721B1828842F08002828004E018
:1049F00082884FF67F731A408280704702884FF694
:104A0000F7731A40028002880A4302807047828846
:104A10004FF68F731A40828082880A4382807047E3
:104A200002894FF6F8731A40028102890A43028113
:104A3000704702894FF67F731A40028102890A4348
:104A400002817047818470478185704781867047F5
:104A50000187704781877047A0F84010704702882F
:104A60004FF6FF431A40028002880A4302807047D3
:104A70000146888E70470146088F70470146888F2F
:104A800070470146B1F8400070470146888C704776
:104A90000146088D704702460020138A0B400BB177
:104AA000012000E000207047CA430282704730B501
:104AB0000246002000230024158A05EA0103958997
:104AC00005EA010413B10CB1012000E0002030BD63
:104AD000CA4302827047000010B50446FA48844277
:104AE00008D101214015FEF7EBFB00216015FEF710
:104AF000E7FB17E0F548844208D101210015FEF7D5
:104B0000DFFB00212015FEF7DBFB0BE0F0488442C1
:104B100008D10121C803FEF7D3FB00214FF4004068
:104B2000FEF7CEFB10BD30B50246002000235068D2
:104B3000E84C20400D790C6844EA0524204350607D
:104B40009068E54C2040D1E902542C434D7944EA69
:104B5000450420439060D06A20F470000C7C641EF1
:104B6000E4B2234340EA0350D06230BD002101602B
:104B7000017141718160C16001210174704721B1EF
:104B8000826842F00102826003E0826822F0010242
:104B90008260704721B1826842F48072826003E0D3
:104BA000826822F480728260704710B50023CBB215
:104BB0001AB144681C43446002E044689C4344606A
:104BC00010BD816841F008018160704701460020F6
:104BD0008A6802F008020AB1012000E00020704754
:104BE000816841F0040181607047014600208A68B5
:104BF00002F004020AB1012000E00020704721B158
:104C0000826842F4A002826003E0826822F4A0027B
:104C100082607047014600208A6802F480020AB16F
:104C2000012000E00020704710B50A460021002353
:104C3000416821F46041531E41EA4331416010BD97
:104C400021B1426842F40062426003E0426822F40B
:104C5000006242607047F0B504460D460020002116
:104C6000092D11DDE068A5F10A0606EB46070726C7
:104C700006FA07F18843A5F10A0606EB460603FA91
:104C800006F10843E0600CE0206905EB45070726C4
:104C900006FA07F1884305EB450603FA06F10843D7
:104CA0002061072A0FDA606B561E06EB86071F2667
:104CB00006FA07F18843561E06EB860605FA06F14A
:104CC0000843606322E00D2A0FDA206BD61F06EB43
:104CD00086071F2606FA07F18843D61F06EB8606CD
:104CE00005FA06F10843206310E0E06AA2F10D0620
:104CF00006EB86071F2606FA07F18843A2F10D0688
:104D000006EB860605FA06F10843E062F0BD21B124
:104D1000826842F48012826003E0826822F480128A
:104D2000826070470146C86C80B2704766484C305C
:104D30000068704721B1426842F48062426003E03B
:104D4000426822F480624260704721B1426842F4B6
:104D50008052426003E0426822F480524260704711
:104D60000A460021816821F4E041114381607047C7
:104D700021B1826842F40042826003E0826822F43A
:104D800000428260704721B1826842F40212826060
:104D900003E0826822F4021282607047014600201C
:104DA0008A6802F400120AB1012000E00020704776
:104DB000F0B504461546002000220026092911DD21
:104DC000E068A1F10A0707EB470C072707FA0CF286
:104DD0009043A1F10A0707EB470703FA07F21043D4
:104DE000E0600CE0206901EB410C072707FA0CF2A8
:104DF000904301EB410703FA07F210432061A06BD7
:104E0000C0F30156EF1C06F1010CA7EB0C0707EBF2
:104E1000870C1F2707FA0CF29043EF1C06F1010CD8
:104E2000A7EB0C0707EB870701FA07F21043A06313
:104E3000F0BD10B50A4600210023816B21F440111A
:104E4000531E41EA0351816310BD08B5002300934E
:104E50000090009B0B440093009B1A6008BD08B5AE
:104E6000024600200090009201F12800009B1844A7
:104E700000900098006880B208BD0A460021416891
:104E8000164B19401143416070474162826270477E
:104E90000A460021416821F01F011143416070471B
:104EA00040B109490831096841F40001064A083255
:104EB000116007E004490831096821F40001024A41
:104EC00008321160704700000024014000280140B2
:104ED000003C0140FFFEF0FFFDF7F1FFFFFD3FFF4B
:104EE0000246002013680B400BB1012000E00020B7
:104EF0007047CA430260704770B502460020002325
:104F000000240B125568CEB205EA060415681D4050
:104F100015B10CB1012000E0002070BD00220A1282
:104F2000D34303607047000010B56FF00400FDF735
:104F300072FE634800686349B0FBF1F06249087093
:104F400008460078092190FBF1F0604908705E483E
:104F5000007800EB4001C1EBC0104FF6FF7101EA91
:104F6000C0005B49088010BD0146584A12784A4388
:104F70004FF0E0235A6100229A611A46126942F00A
:104F800001021A6100BF4FF0E022106900F0010237
:104F90001AB100F48032002AF5D04FF0E0221269F5
:104FA00022F001024FF0E0231A6100229A6170475B
:104FB0000146454A12784A434FF0E0235A610022E5
:104FC0009A611A46126942F001021A6100BF4FF05D
:104FD000E022106900F001021AB100F48032002AC8
:104FE000F5D04FF0E022126922F001024FF0E023E9
:104FF0001A6100229A6170470146354A12884A4375
:105000004FF0E0235A6100229A611A46126942F079
:1050100001021A6100BF4FF0E022106900F00102A6
:105020001AB100F48032002AF5D04FF0E022126964
:1050300022F001024FF0E0231A6100229A617047CA
:105040002DE9F05F8346584602F02AFF074600220A
:10505000204B02F00DFB054602F062FC04462046A0
:1050600002F08DFC054600221A4B02F0EFFC0746C9
:1050700002F010FA82465146584603F045FA82463D
:105080001549504603F038F9824654B14FF00009F3
:1050900005E04FF4FA70FFF7AFFF09F10109A145F0
:1050A000F7DB0021504603F057F806D0504603F0D6
:1050B00087F885B22846FFF79FFFBDE8F09F000004
:1050C0000000002000127A001101002010010020D1
:1050D000120100200000E03F00007A4410B54FF4B8
:1050E000A060FDF749FD10BD00BF704700BF934AA7
:1050F000128802F04002002AF9D0C2B28F4B1B1D69
:105100001A80704710B586B00446012144F20400AD
:10511000FEF7BCF84FF40070ADF8140003208DF8D2
:10512000160018208DF8170005A98548FDF7F2FD37
:105130004FF48060ADF8140004208DF8170005A925
:105140007F48FDF7E7FD25208DF8000000208DF851
:1051500001008DF8020001208DF803006846FDF77C
:1051600010FD01940020ADF80800ADF80A00ADF87C
:105170000C00ADF810000C20ADF80E0001A96F482E
:10518000FEF72BF9012240F225516C48FEF7BDF9DC
:1051900001216A48FEF7ADF9012280216748FEF738
:1051A000D9F906B010BD10B586B00446012108201B
:1051B000FEF76CF801218804FEF775F84FF40060E3
:1051C000ADF8140004208DF8170005A95D48FDF71F
:1051D000A1FD4FF48060ADF8140003208DF8160097
:1051E00018208DF8170005A95648FDF793FD019486
:1051F0000020ADF80800ADF80A00ADF80C00ADF8DD
:1052000010000C20ADF80E0001A94F48FEF7E5F89C
:10521000012240F225514C48FEF777F901214A4816
:10522000FEF767F927208DF8000004208DF80100B3
:1052300000208DF8020001208DF803006846FDF77C
:10524000A0FC06B010BD10B540F225513B48FEF75A
:1052500041FA10B33948FEF7BDF9C4B23B480088A3
:1052600000F40040C8B93948008800F4804060B1BB
:105270000A2C03D000203549088020E033480088FC
:1052800040F400403149088019E00D2C06D12F4828
:10529000008840F480402D49088010E02B480088A9
:1052A000C0F30D002A490C5428480088401C2749A7
:1052B000088008460088C72801DD0020088010BD4E
:1052C00010B540F225512048FEF704FA10B31E48ED
:1052D000FEF780F9C4B21F48008800F40040C8B946
:1052E0001C48008800F4804060B10A2C03D00020E4
:1052F0001849088020E01748008840F4004015490C
:10530000088019E00D2C06D11248008840F4804036
:105310001049088010E00F480088C0F30D000E49C6
:105320000C540C480088401C0A4908800846008834
:10533000C72801DD0020088010BD000000380140B2
:1053400000080140000C0140004800401801002006
:10535000180600201A010020E00600207047000017
:105360001CB50C46064B7B4469460090204600F075
:1053700044FC04460020694600F052FC20461CBD57
:10538000B70800000FB4044910B503AA029800F052
:1053900063FC10BC5DF814FB1401002070B50C46D2
:1053A0000546012A05D02878800600D5EA69002341
:1053B00002E0012305E05B1C934202D2E05C00287E
:1053C000F9D1A869E618C01AA861286A18442862A9
:1053D000284600F059F904E0D5E9012114F8010B41
:1053E0009047B442F8D3284600F064F970BD00003D
:1053F0002DE9F0410646002410687529314616A5AE
:1054000010D000F068F9002802DA404213A507E046
:1054100031688A0701D512A502E0490704D511A514
:10542000012401E000F060F900210A2206F12407BE
:1054300009E0B0FBF2FCB0FBF2F302FB1C003030E1
:1054400078541846491C0028F3D123462A46304692
:10545000BDE8F04100F051B9000000002D0000004F
:105460002B000000200000002DE9F05F8946044673
:105470004FF0000ADFF874B1FB44C0F820A02046CA
:10548000E1688847002874D0252806D0D4E9012196
:105490009047206A401C2062F1E700265F462046C4
:1054A000E16888472028054607DB312D05D27819A9
:1054B00010F8200C08B10643F1E7B00701D526F03B
:1054C0000406C4F81CA00027C4F818A02A2D09D08F
:1054D000284601F00DFF38B304EB8708303DC8F8CB
:1054E000185019E059F8041B204604EB870291611B
:1054F000E1688847012F054618D1E069002820DAC5
:1055000026F020061DE0D8F8180000EB800005EB1F
:1055100040003038C8F818002046E1688847054642
:1055200001F0E6FE0028EED1012F0AD02E2D08D181
:105530002046E16888477F1C0546022F46F020067A
:10554000C4DBA069002803DA404246F00106A061EE
:10555000F00701D026F010066C2D0BD0682D09D075
:105560004C2D39D06A2D35D0742D35D07A2D33D0CD
:1055700016E038E0E1682F4620468847B8420546E5
:1055800009D16C2F26D04FF48060E1680643204695
:105590008847054604E06C2F1AD04FF4807006430C
:1055A0000DB3A5F14100192802D8203546F4006654
:1055B0004A462946204626604E46FAF7D1FD80B17C
:1055C00001280BD0F61D26F0070000F1080956E768
:1055D0004020E4E78020D8E70020D6E706F1040960
:1055E0004DE7284652E7206ABDE8F09F743200007C
:1055F0000B4910B5A1F17C020A4CC2E937123721E0
:1056000006E000EB104342F82130074B00FB03405B
:105610000B1EA1F10101F4DC10BD0120E8E7000040
:1056200024080020E119D666CD0D010010B5431CF9
:1056300002E010F8011B71B18107FAD14FF001327D
:1056400002C88C1A8C4314EAC211F9D0C01A0A0697
:1056500003D0C01E10BDC01A10BD0A0401D0801EA8
:1056600010BD0902FCD0401E10BD70477047704746
:10567000704710B500F024FC006810BD10B504465A
:1056800000F01EFC046010BD70B50446856900681A
:10569000C10601D5302600E02026C00707D070BD26
:1056A000D4E9012130469047206A401C20626D1EDB
:1056B000F6D570BD70B5044685690078C00707D17E
:1056C00070BDD4E9012120209047206A401C20624F
:1056D0006D1EF6D570BD09684A0501D540B2704708
:1056E000C905FCD500B2704709684A0501D5C0B2AA
:1056F0007047C905FCD580B270472DE9F0470D46CB
:1057000099469246044600F124080168880604D5AB
:10571000E06921F01001216000E00120A84201DDD4
:10572000471B00E00027A1697A1902EB0900081A5B
:10573000A0612078C00602D42046FFF7A5FF00260E
:1057400008E0D4E901211AF806009047206A401CBD
:10575000761C20624E45F4DB2078C0060AD5204630
:10576000FFF792FF06E0D4E9012130209047206A3C
:10577000401C2062381EA7F10107F4DC07E0D4E9E1
:10578000012118F805009047206A401C2062281E5D
:10579000A5F10105F3DC2046FFF78CFF2078000619
:1057A00002D50220BDE8F0870120FBE711680268FE
:1057B000006A530501D508700AE0D30501D50880B9
:1057C00006E0130603D5C217C1E9000200E0086035
:1057D0000120704770472DE9FF4F0C461E464FF0E1
:1057E000FF378BB0D2E90001DDF860800A908A466D
:1057F000C1F30A5505B93D46002108464FF00000A7
:10580000BAF1000F00F4400005DA00EB80004FF41D
:10581000400101EA50004FEA9059B9F1010F00DD53
:10582000B9460A9850EA4A000ED044F61050A5F244
:10583000FF3545432F14B8F1000F1ED07542291EC5
:105840001EDDC9F100021CE0B8F1010F4FF00000AD
:1058500001D0302103E0F24305E02154401CB04266
:10586000FBDB30460022002121540B99C1F808804F
:10587000C1E900200FB0BDE8F08FBD1B6D1CDEE755
:105880004A4600DA694206A800F038FD06AB93E804
:10589000070003AB83E8070050460A9900F038FE82
:1058A0008DE80700A0F500501F3800900398002DE8
:1058B00009DD42F21F014A46084403A903906846E5
:1058C00001F097F808E0A0F500504A461F3803A9F8
:1058D0000390684601F0A1F88DE807000004000C71
:1058E00003D04FF0FF30410800E01046B8F1000F40
:1058F00003D00022009215461EE0751E05D400F06C
:10590000E3FA303262556D1EF9D5B34601220843E1
:1059100002D000227F1C04E02078302801D1002230
:105920007F1E002A099786D01DE0112D07DA00F0AE
:10593000CBFA303262556D1C50EA0102F5D10843B2
:1059400002D00098C8B10EE00021681E05E0235C7B
:10595000625C63542254401E491C8142F7DBAB4613
:10596000A81B401E0990002004F80B000B98099A10
:10597000C0F80880C0E9002B7CE711264FF0000832
:1059800059E72DE9F04F88460446D21D22F0070161
:1059900091B0D1E90001CDE90A0101F074F90246A4
:1059A0000B98C00F01D02D2007E02068810701D59A
:1059B0002B2002E0202101EAC000032A099001D037
:1059C000072A05DB03464146204600F041FC0BE177
:1059D0002078800601D5E06900E00620B8F1650F67
:1059E000814606D0B8F1660F18D0B8F1670F70D1B4
:1059F00031E00020B9F1110F009001DB112301E02B
:105A000009F101030AAA01A90CA8FFF7E4FEDDE9E8
:105A10000C70002609F10105834647E001204B4642
:105A200000904FF000470AAA01A90CA8FFF7D3FE87
:105A3000DDE90DB00C995D46002610B909F10100B1
:105A40000D18B9EB050003D4C0F1FF3609F10105CB
:105A5000A5EB09002BE0B9F1010F01DA4FF00109C4
:105A60000020B9F1110F0090484601DD112300E03C
:105A700003460AAA01A90CA8FFF7ADFEDDE90C70E8
:105A80004D4600268346207800070AD4AB4500DA4D
:105A90005D4601A8012D04DD411911F8011C3029D2
:105AA00007D04F4502DA17F1040F04DA01208246CD
:105AB0000FE06D1EEEE7002F02DCED1B3E4403E01D
:105AC000781CA84200DD7D1CB81B00F1010A4FF0D4
:105AD00000472078000703D4AA4501DB4FF0FF3AC6
